{
  "_format": "hh-sol-artifact-1",
  "contractName": "NFTDutchAuction_ERC20Bids",
  "sourceName": "contracts/NFTDutchAuction_ERC20Bids.sol",
  "abi": [
    {
      "inputs": [
        {
          "internalType": "uint256",
          "name": "_reservePrice",
          "type": "uint256"
        },
        {
          "internalType": "address",
          "name": "_judgeAddress",
          "type": "address"
        },
        {
          "internalType": "uint256",
          "name": "_numBlocksAuctionOpen",
          "type": "uint256"
        },
        {
          "internalType": "uint256",
          "name": "_offerPriceDecrement",
          "type": "uint256"
        }
      ],
      "stateMutability": "nonpayable",
      "type": "constructor"
    },
    {
      "inputs": [],
      "name": "bid",
      "outputs": [
        {
          "internalType": "address",
          "name": "",
          "type": "address"
        }
      ],
      "stateMutability": "payable",
      "type": "function"
    },
    {
      "inputs": [],
      "name": "finalize",
      "outputs": [],
      "stateMutability": "nonpayable",
      "type": "function"
    },
    {
      "inputs": [],
      "name": "nop",
      "outputs": [
        {
          "internalType": "bool",
          "name": "",
          "type": "bool"
        }
      ],
      "stateMutability": "nonpayable",
      "type": "function"
    },
    {
      "inputs": [
        {
          "internalType": "uint256",
          "name": "refundAmount",
          "type": "uint256"
        }
      ],
      "name": "refund",
      "outputs": [],
      "stateMutability": "nonpayable",
      "type": "function"
    }
  ],
  "bytecode": "0x60806040523480156200001157600080fd5b506040516200142238038062001422833981810160405281019062000037919062000429565b6200006b7f55d9c7d2a348357ebafdefcce02542eaf3511839fa5cb31928826c2c1417447960001b6200038160201b60201c565b6200009f7f32b8a51f99bdde0db888a6d1251feebdbda2be24c84f5625ac6badc5563dc9f160001b6200038160201b60201c565b620000d37f9c376c3f81504062ad941262b6708c0bc17453c518f90d27abf281e18247d23c60001b6200038160201b60201c565b836001819055506200010e7f76b188e9b7cbf6d21037ee3f9bdfc88458b9f262d6d8a4830da5d803be13c24060001b6200038160201b60201c565b620001427f7e330db28550ad530ba32c60ee17e96dc6bd7ba04a80efc95570ef68e0b0700e60001b6200038160201b60201c565b82600260006101000a81548173ffffffffffffffffffffffffffffffffffffffff021916908373ffffffffffffffffffffffffffffffffffffffff160217905550620001b77f0e99490ba722f86692269509655034a52e7bb527328fda400f6ba86449fc345260001b6200038160201b60201c565b620001eb7f4b7b8e9e7af7df85c473d2b5bdd8e90e45de79f707ef16fb2e24e0bb033806a860001b6200038160201b60201c565b81600381905550620002267fa70f318ed2fd7ba1545bfa7d28a2df53e7d68338df33431d60f04cf310a9072560001b6200038160201b60201c565b6200025a7f943a063fa18ee08377a14112c4c47f669fe4a9fd904234df8ad7a963986b2afd60001b6200038160201b60201c565b80600481905550620002947eb059a5b1e009c0b341e2a4bee402d9d64d27a1b71e00938e4ca2d9d0090de360001b6200038160201b60201c565b620002c87f80e76e8c4d293357a1e40c383bab304f7783951eec04ec428ad4538ee9b8d69360001b6200038160201b60201c565b336000806101000a81548173ffffffffffffffffffffffffffffffffffffffff021916908373ffffffffffffffffffffffffffffffffffffffff1602179055506200033c7f8b6ace4f4ae2a4be6731cc29042f59fa3f81fefa275ed09830dd72321552123560001b6200038160201b60201c565b620003707fdc1c919d9dfdd3a7c7497a2227e3ecb17218057ac609da622abd93ce5357919e60001b6200038160201b60201c565b43600581905550505050506200049b565b50565b600080fd5b6000819050919050565b6200039e8162000389565b8114620003aa57600080fd5b50565b600081519050620003be8162000393565b92915050565b600073ffffffffffffffffffffffffffffffffffffffff82169050919050565b6000620003f182620003c4565b9050919050565b6200040381620003e4565b81146200040f57600080fd5b50565b6000815190506200042381620003f8565b92915050565b6000806000806080858703121562000446576200044562000384565b5b60006200045687828801620003ad565b9450506020620004698782880162000412565b93505060406200047c87828801620003ad565b92505060606200048f87828801620003ad565b91505092959194509250565b610f7780620004ab6000396000f3fe60806040526004361061003f5760003560e01c80631998aeef14610044578063278ecde1146100625780632e9c58bb1461008b5780634bb278f3146100b6575b600080fd5b61004c6100cd565b6040516100599190610d75565b60405180910390f35b34801561006e57600080fd5b5061008960048036038101906100849190610dcb565b6106bb565b005b34801561009757600080fd5b506100a06108fe565b6040516100ad9190610e13565b60405180910390f35b3480156100c257600080fd5b506100cb61098b565b005b60006100fb7f1323c9ebe8e24178bdbf5c70e4c5b62d7f1103129669fcc653e86df41a0a559b60001b610d31565b6101277f5b9411d8f8afbbacb7bd3f0f5b68e15eb6cf0bcad70033569f1c619917fdf5cd60001b610d31565b6101537f779b6db77dd9bc89254471045fdafd38c96ce9b22cb725caad7183f222d044a260001b610d31565b61017f7fe71d2f531e6eefd42710a58fb6d7ec2ab1b1b136842dbbd7197824fa447706cd60001b610d31565b600860009054906101000a900460ff161561019957600080fd5b6101c57f796ca4e17e48cda5b99f4a01ae460645935cb8785b707cffff4a6960feaf33fe60001b610d31565b6101f17f7d9a0bb3df1cf9aa4f011fcb8f09bb085901d4e28b54f5b079dbfc2bb976635460001b610d31565b61021d7f333113c644911a067cdef85779e6279ea208f852a206ec09a93529970e21380e60001b610d31565b6102497f9d8c9bf1dfdf6c432ae9b5721b886c3867f832c99d969046be64bade286263e860001b610d31565b6003546005546102599190610e5d565b431061026457600080fd5b6102907fdddedf320bf4d568ef930eddf07110b4efa6921ec1bcd7772e552196beb5685e60001b610d31565b6102bc7f77d26a5a38c73594c959ea2a50cf29ffb4e1041119a83e2cbcaa7fd26a21f0a160001b610d31565b6102e87fbed5ad35f52764b1e93aa2ba50e47bb87633826a6a79b8a4420549b4818eefd760001b610d31565b6103147f63645317c82bd092b64c9354740cdf47c9037782f36418bb1299926890ea664360001b610d31565b436003546005546103259190610e5d565b61032f9190610eb3565b60045461033c9190610ee7565b6001546103499190610e5d565b34101561035557600080fd5b6103817fbb14de4e9fd615bb5f76c03d1e2512ee50d353aba3de519510df13f5c26e52ce60001b610d31565b6103ad7f50fa901371b1378ea6ec33cecf62d04322a0373494b0da89f7733c58572d643b60001b610d31565b6103d97f1e344b68e512bd6a96f84a5e40c968cdec612e176637bdd3abc317bdf62f378b60001b610d31565b6001600860006101000a81548160ff0219169083151502179055506104207fa3d48c5d6bf7786967dd3ba9097515f6a1339e2774bf327137370b1f0bb69bbf60001b610d31565b61044c7f62b7f33ec2622e02ef5397518c6e6cac0b95dc2ea932384de85053bc25daff8560001b610d31565b600073ffffffffffffffffffffffffffffffffffffffff16600260009054906101000a900473ffffffffffffffffffffffffffffffffffffffff1673ffffffffffffffffffffffffffffffffffffffff161415610593576104cf7f52cff58272b85082949809fa65dbd5de5b03ad128dee71d241b80ad31e9eac3b60001b610d31565b6104fb7fd7614e0db7f1ea171985d6fda8a447793876c76359fde4aa0e9a75bdf475cd3660001b610d31565b6105277fc911bc18fb1e12ca4ffe7a1dce048632667f9f0b5c443a35001b94f8e84dcca260001b610d31565b60008054906101000a900473ffffffffffffffffffffffffffffffffffffffff1673ffffffffffffffffffffffffffffffffffffffff166108fc349081150290604051600060405180830381858888f1935050505015801561058d573d6000803e3d6000fd5b506106b8565b6105bf7f4e14d4d5d0ec129eb77dc2aa172dbfcafef04722b10001ec2614f6336de5db3f60001b610d31565b6105eb7f68e78ebf32ecf2bcbe1b7712eef9a32bc3b43fc40e111b1e6db5d36ffc89b23560001b610d31565b6106177f1d7e0d4d308fbfec7e5ec622250a80048c06eb80d7d4d707b7c343c2e2747ff160001b610d31565b33600660006101000a81548173ffffffffffffffffffffffffffffffffffffffff021916908373ffffffffffffffffffffffffffffffffffffffff1602179055506106847f34ee7f56381dc5f6e25ac70f3bb557440e9dd7d5591317e89e3cb2d34f25a97e60001b610d31565b6106b07fb59a72d07efd0f835df1b0d3c4c7a28d0a4a5c842b5849467981500f15f6ccf060001b610d31565b346007819055505b90565b6106e77f2487bb5af9d63daa6de08406375ed35d5b463e6815a43ac7e8717fd71ba92c1e60001b610d31565b6107137f21e324a38da7b9f31066a62a086ed3be1e5f549d8444b2d0b9ab7b054b94139760001b610d31565b61073f7f45487d4e2584d44148d85c9e007ba734f0678303f6ece2f81195f982014a0fad60001b610d31565b61076b7f1cd894a114e3e6cfd6116b12ac4f32ea81e2e5227fddd70d6036ee037769ddfa60001b610d31565b600860009054906101000a900460ff1680156107945750600860019054906101000a900460ff16155b61079d57600080fd5b6107c97f4c71266107b39abcba9fa39221175ed95dbcc346e700cf6f3a2a79f27060811e60001b610d31565b6107f57f4870fe48b69203fbb73ff8d803fe67b7682965591d56b8b9a5b10827212499ec60001b610d31565b6108217f42c233bc80fb887dd5db41f4d52141ebd3ec6484e887446a31d9a10d9270cbc960001b610d31565b6001600860016101000a81548160ff0219169083151502179055506108687f5d43cf3b5c3990c3c543949f1c2ba4159c9d42f6b852fad4f974110ff32f9a3860001b610d31565b6108947f3663374a8cd7c069f2079edba4bc9a5c8af2869cda9b08d7ae952b435a69a2c360001b610d31565b60008054906101000a900473ffffffffffffffffffffffffffffffffffffffff1673ffffffffffffffffffffffffffffffffffffffff166108fc829081150290604051600060405180830381858888f193505050501580156108fa573d6000803e3d6000fd5b5050565b600061092c7f8e8f7597229c40e1e46321e9debdda98e6eb4a7cde7d5754aa053906cfb266fe60001b610d31565b6109587f41c4dbd4db909ab6835cc4ce017f7750090ec45bcc73d59b989ce39583a1053a60001b610d31565b6109847fc8625773e7ed47619957d2a64b1084e480bf8bc0f79795697ab483126ced8d7c60001b610d31565b6001905090565b6109b77f8a2dfb6e90ec94af1fa32a79f1465faa05601d1da6da74087440028c37223ec260001b610d31565b6109e37fe07a9eb0eef766a807ca9b80f60da6652a4c88f36d19b57ec3cd74366bba101d60001b610d31565b610a0f7fdf66f92ce275dbe0bd65b4741596050f7f6c83f62a2bf265018564c1bc37bbcf60001b610d31565b610a3b7ff1780f7b050e48f6e30795fb757cc67cd2778937f673339ab7ad075d6ea10f2b60001b610d31565b600860009054906101000a900460ff168015610a645750600860019054906101000a900460ff16155b610a6d57600080fd5b610a997fd2b19bd12a6bff8508e0dc32a4f03929bbdf19bfe334ff828beb304757dfd12f60001b610d31565b610ac57fb47ab77cbac03a182b5868410f9e9a49af96568c08789db28875bd933a095cff60001b610d31565b610af17f040f118e4cb752f0d113b4387b2aa4b6fffe1b2eea466e3dfed820e344725e1960001b610d31565b610b1d7f9dc54e230a99cd5b7ba7750d6f318e6b8f05b7933cddb986b889b045c19d043e60001b610d31565b600260009054906101000a900473ffffffffffffffffffffffffffffffffffffffff1673ffffffffffffffffffffffffffffffffffffffff163373ffffffffffffffffffffffffffffffffffffffff161480610bc65750600660009054906101000a900473ffffffffffffffffffffffffffffffffffffffff1673ffffffffffffffffffffffffffffffffffffffff163373ffffffffffffffffffffffffffffffffffffffff16145b610bcf57600080fd5b610bfb7fc28c8a52d05fdd32c86f1bdbdf7f965ec11b969e1bae090106e53546356586d860001b610d31565b610c277f664acf39240d42e9cb83557c0fb037a16ca662c69033c37b8cd657ed1381039660001b610d31565b610c537f4467e21e0e4a0711314654d1ac3328047b065e449379584e021917fcddc9faf060001b610d31565b6001600860016101000a81548160ff021916908315150217905550610c9a7f8c79051630776fe4de9073bdb9bd73d468c0b4ba957edb6a053c59a700c6596b60001b610d31565b610cc67f5d0bae38dcec3a3ca18a37a328e6d6216e01b65fc1522fd41dd61cbe60ed5d9360001b610d31565b60008054906101000a900473ffffffffffffffffffffffffffffffffffffffff1673ffffffffffffffffffffffffffffffffffffffff166108fc6007549081150290604051600060405180830381858888f19350505050158015610d2e573d6000803e3d6000fd5b50565b50565b600073ffffffffffffffffffffffffffffffffffffffff82169050919050565b6000610d5f82610d34565b9050919050565b610d6f81610d54565b82525050565b6000602082019050610d8a6000830184610d66565b92915050565b600080fd5b6000819050919050565b610da881610d95565b8114610db357600080fd5b50565b600081359050610dc581610d9f565b92915050565b600060208284031215610de157610de0610d90565b5b6000610def84828501610db6565b91505092915050565b60008115159050919050565b610e0d81610df8565b82525050565b6000602082019050610e286000830184610e04565b92915050565b7f4e487b7100000000000000000000000000000000000000000000000000000000600052601160045260246000fd5b6000610e6882610d95565b9150610e7383610d95565b9250827fffffffffffffffffffffffffffffffffffffffffffffffffffffffffffffffff03821115610ea857610ea7610e2e565b5b828201905092915050565b6000610ebe82610d95565b9150610ec983610d95565b925082821015610edc57610edb610e2e565b5b828203905092915050565b6000610ef282610d95565b9150610efd83610d95565b9250817fffffffffffffffffffffffffffffffffffffffffffffffffffffffffffffffff0483118215151615610f3657610f35610e2e565b5b82820290509291505056fea2646970667358221220c60418c561ebf97719691ff5cbc89503bf7eaa6b7b6c9560d569b7b7d8c33f0164736f6c63430008090033",
  "linkReferences": {},
  "deployedLinkReferences": {}
}