{
  "_format": "hh-sol-artifact-1",
  "contractName": "Token",
  "sourceName": "contracts/Token.sol",
  "abi": [
    {
      "inputs": [],
      "stateMutability": "nonpayable",
      "type": "constructor"
    },
    {
      "anonymous": false,
      "inputs": [
        {
          "indexed": true,
          "internalType": "address",
          "name": "_from",
          "type": "address"
        },
        {
          "indexed": true,
          "internalType": "address",
          "name": "_to",
          "type": "address"
        },
        {
          "indexed": false,
          "internalType": "uint256",
          "name": "_value",
          "type": "uint256"
        }
      ],
      "name": "Transfer",
      "type": "event"
    },
    {
      "inputs": [
        {
          "internalType": "address",
          "name": "account",
          "type": "address"
        }
      ],
      "name": "balanceOf",
      "outputs": [
        {
          "internalType": "uint256",
          "name": "",
          "type": "uint256"
        }
      ],
      "stateMutability": "view",
      "type": "function"
    },
    {
      "inputs": [],
      "name": "name",
      "outputs": [
        {
          "internalType": "string",
          "name": "",
          "type": "string"
        }
      ],
      "stateMutability": "view",
      "type": "function"
    },
    {
      "inputs": [],
      "name": "owner",
      "outputs": [
        {
          "internalType": "address",
          "name": "",
          "type": "address"
        }
      ],
      "stateMutability": "view",
      "type": "function"
    },
    {
      "inputs": [],
      "name": "symbol",
      "outputs": [
        {
          "internalType": "string",
          "name": "",
          "type": "string"
        }
      ],
      "stateMutability": "view",
      "type": "function"
    },
    {
      "inputs": [],
      "name": "totalSupply",
      "outputs": [
        {
          "internalType": "uint256",
          "name": "",
          "type": "uint256"
        }
      ],
      "stateMutability": "view",
      "type": "function"
    },
    {
      "inputs": [
        {
          "internalType": "address",
          "name": "to",
          "type": "address"
        },
        {
          "internalType": "uint256",
          "name": "amount",
          "type": "uint256"
        }
      ],
      "name": "transfer",
      "outputs": [],
      "stateMutability": "nonpayable",
      "type": "function"
    }
  ],
  "bytecode": "0x60806040526040518060400160405280601081526020017f4d79204861726468617420546f6b656e00000000000000000000000000000000815250600090805190602001906200005192919062000249565b506040518060400160405280600381526020017f4d48540000000000000000000000000000000000000000000000000000000000815250600190805190602001906200009f92919062000249565b50620f4240600255348015620000b457600080fd5b50620000e97fd1b67f09e936a2297815f79d979ade95fbe36afb3570363d91e189fb13bd93eb60001b6200024660201b60201c565b6200011d7f5cee2e5a043995faca603a424f155fe7a41801591e082cdc905ace2d894e950c60001b6200024660201b60201c565b620001517f16bea247d9c4b05e9efaf61ccec544c98ea3c80d452cabc2a15cec33b6d02aed60001b6200024660201b60201c565b600254600460003373ffffffffffffffffffffffffffffffffffffffff1673ffffffffffffffffffffffffffffffffffffffff16815260200190815260200160002081905550620001cb7f3fc26779cb2240fb5ed3ad0db24eea1cfac89d4c6ac8aefdb41702c7e96ea8c360001b6200024660201b60201c565b620001ff7f14fd3aabe60e69d3d1b3d7a400f47c07f0962cb968b9e7573b5617c31333749660001b6200024660201b60201c565b33600360006101000a81548173ffffffffffffffffffffffffffffffffffffffff021916908373ffffffffffffffffffffffffffffffffffffffff1602179055506200035e565b50565b828054620002579062000328565b90600052602060002090601f0160209004810192826200027b5760008555620002c7565b82601f106200029657805160ff1916838001178555620002c7565b82800160010185558215620002c7579182015b82811115620002c6578251825591602001919060010190620002a9565b5b509050620002d69190620002da565b5090565b5b80821115620002f5576000816000905550600101620002db565b5090565b7f4e487b7100000000000000000000000000000000000000000000000000000000600052602260045260246000fd5b600060028204905060018216806200034157607f821691505b60208210811415620003585762000357620002f9565b5b50919050565b610c46806200036e6000396000f3fe608060405234801561001057600080fd5b50600436106100625760003560e01c806306fdde031461006757806318160ddd1461008557806370a08231146100a35780638da5cb5b146100d357806395d89b41146100f1578063a9059cbb1461010f575b600080fd5b61006f61012b565b60405161007c919061089e565b60405180910390f35b61008d6101b9565b60405161009a91906108d9565b60405180910390f35b6100bd60048036038101906100b89190610957565b6101bf565b6040516100ca91906108d9565b60405180910390f35b6100db61028c565b6040516100e89190610993565b60405180910390f35b6100f96102b2565b604051610106919061089e565b60405180910390f35b610129600480360381019061012491906109da565b610340565b005b6000805461013890610a49565b80601f016020809104026020016040519081016040528092919081815260200182805461016490610a49565b80156101b15780601f10610186576101008083540402835291602001916101b1565b820191906000526020600020905b81548152906001019060200180831161019457829003601f168201915b505050505081565b60025481565b60006101ed7fcb4aea5c90ec095778e0976a75f09442f66466b5fbc628801e4d7b3b758110c860001b610737565b6102197f5632812ab5403a843d0990c0406b7ff608a1d3cb7808a41858253f7137661d2760001b610737565b6102457f111cc9f41d9d38ae1b6955af8e87a3ea62cdc9507376a48850246bbdb0fdbdd760001b610737565b600460008373ffffffffffffffffffffffffffffffffffffffff1673ffffffffffffffffffffffffffffffffffffffff168152602001908152602001600020549050919050565b600360009054906101000a900473ffffffffffffffffffffffffffffffffffffffff1681565b600180546102bf90610a49565b80601f01602080910402602001604051908101604052809291908181526020018280546102eb90610a49565b80156103385780601f1061030d57610100808354040283529160200191610338565b820191906000526020600020905b81548152906001019060200180831161031b57829003601f168201915b505050505081565b61036c7f46494b33ff33056eb9207a8de6e52a0115e95294c9fe2e70a1de003304433f8760001b610737565b6103987f9f347b5a0bbe2a04b5e77dd57415e9cb749f0463e565a231ba3b51442d08c99460001b610737565b6103c47fd0f6005a7c2606085e733d5dec61c1188b3a9ec3aad74e78ea8f60bfe881951060001b610737565b6103f07f7e0c764bf0dcf950b5f7160ba5704061639fb541f9dadf1331003130dbeb4cb360001b610737565b80600460003373ffffffffffffffffffffffffffffffffffffffff1673ffffffffffffffffffffffffffffffffffffffff168152602001908152602001600020541015610472576040517f08c379a000000000000000000000000000000000000000000000000000000000815260040161046990610ac7565b60405180910390fd5b61049e7f341df2a1e9a94996d0bd98e4c30b53a2ddabec72c0ba665555340a28a044e6f660001b610737565b6104ca7ff080111d94ec3e906d49b5f638f1e6cc79a643051fbab0f52827d10a7f72994c60001b610737565b6104f67f3e7f97e5300cc5d1415a3eef8ac2f670085e4450d8faad0b29feaf713c1be6ff60001b610737565b61051a604051806060016040528060248152602001610bed6024913933848461073a565b6105467fd387026a49e07c534a1c5cffae5ee722790801e404d9fd83c3eba36513b53c7160001b610737565b6105727fe40d1b69f670e340f66b72a796a1190071c82289e790a57d25d27d8407888cbd60001b610737565b80600460003373ffffffffffffffffffffffffffffffffffffffff1673ffffffffffffffffffffffffffffffffffffffff16815260200190815260200160002060008282546105c19190610b16565b925050819055506105f47f0ec7f6ecc0aa4131b08c06eb8d4dae215100d0fe3855e26b8e14f08134684cc460001b610737565b6106207fa9f5d0824025ed6e1aaf2bb452b83a99f2a317da9906d65b2a0c1bc0b981ee6060001b610737565b80600460008473ffffffffffffffffffffffffffffffffffffffff1673ffffffffffffffffffffffffffffffffffffffff168152602001908152602001600020600082825461066f9190610b4a565b925050819055506106a27f9031c9e647eda814ac4e16cc94a07baf7db34f2c1ce0a07109fc05f1e0149e3b60001b610737565b6106ce7fb35ea4270f3b62a861c04ca6ff8644652bbc2b443f7083b5556dfb708035cff860001b610737565b8173ffffffffffffffffffffffffffffffffffffffff163373ffffffffffffffffffffffffffffffffffffffff167fddf252ad1be2c89b69c2b068fc378daa952ba7f163c4a11628f55a4df523b3ef8360405161072b91906108d9565b60405180910390a35050565b50565b6107d6848484846040516024016107549493929190610ba0565b6040516020818303038152906040527f6eb7943d000000000000000000000000000000000000000000000000000000007bffffffffffffffffffffffffffffffffffffffffffffffffffffffff19166020820180517bffffffffffffffffffffffffffffffffffffffffffffffffffffffff83818316178352505050506107dc565b50505050565b60008151905060006a636f6e736f6c652e6c6f679050602083016000808483855afa5050505050565b600081519050919050565b600082825260208201905092915050565b60005b8381101561083f578082015181840152602081019050610824565b8381111561084e576000848401525b50505050565b6000601f19601f8301169050919050565b600061087082610805565b61087a8185610810565b935061088a818560208601610821565b61089381610854565b840191505092915050565b600060208201905081810360008301526108b88184610865565b905092915050565b6000819050919050565b6108d3816108c0565b82525050565b60006020820190506108ee60008301846108ca565b92915050565b600080fd5b600073ffffffffffffffffffffffffffffffffffffffff82169050919050565b6000610924826108f9565b9050919050565b61093481610919565b811461093f57600080fd5b50565b6000813590506109518161092b565b92915050565b60006020828403121561096d5761096c6108f4565b5b600061097b84828501610942565b91505092915050565b61098d81610919565b82525050565b60006020820190506109a86000830184610984565b92915050565b6109b7816108c0565b81146109c257600080fd5b50565b6000813590506109d4816109ae565b92915050565b600080604083850312156109f1576109f06108f4565b5b60006109ff85828601610942565b9250506020610a10858286016109c5565b9150509250929050565b7f4e487b7100000000000000000000000000000000000000000000000000000000600052602260045260246000fd5b60006002820490506001821680610a6157607f821691505b60208210811415610a7557610a74610a1a565b5b50919050565b7f4e6f7420656e6f75676820746f6b656e73000000000000000000000000000000600082015250565b6000610ab1601183610810565b9150610abc82610a7b565b602082019050919050565b60006020820190508181036000830152610ae081610aa4565b9050919050565b7f4e487b7100000000000000000000000000000000000000000000000000000000600052601160045260246000fd5b6000610b21826108c0565b9150610b2c836108c0565b925082821015610b3f57610b3e610ae7565b5b828203905092915050565b6000610b55826108c0565b9150610b60836108c0565b9250827fffffffffffffffffffffffffffffffffffffffffffffffffffffffffffffffff03821115610b9557610b94610ae7565b5b828201905092915050565b60006080820190508181036000830152610bba8187610865565b9050610bc96020830186610984565b610bd66040830185610984565b610be360608301846108ca565b9594505050505056fe5472616e7366657272696e672066726f6d20257320746f20257320257320746f6b656e73a2646970667358221220454ca750c8ac3738881c636a1edaa1b09767e7460f1972b4f2f596f21acaae6b64736f6c63430008090033",
  "linkReferences": {},
  "deployedLinkReferences": {}
}