{
  "_format": "hh-sol-artifact-1",
  "contractName": "DutchAuctions",
  "sourceName": "contracts/NFTDutchAuction_ERC20Bids.sol",
  "abi": [
    {
      "inputs": [
        {
          "internalType": "address",
          "name": "_erc20TokenAddress",
          "type": "address"
        },
        {
          "internalType": "address",
          "name": "_erc721TokenAddress",
          "type": "address"
        },
        {
          "internalType": "uint256",
          "name": "_nftTokenId",
          "type": "uint256"
        },
        {
          "internalType": "uint256",
          "name": "_reservePrice",
          "type": "uint256"
        },
        {
          "internalType": "uint256",
          "name": "_numBlocksAuctionOpen",
          "type": "uint256"
        },
        {
          "internalType": "uint256",
          "name": "_offerPriceDecrement",
          "type": "uint256"
        }
      ],
      "stateMutability": "nonpayable",
      "type": "constructor"
    },
    {
      "inputs": [
        {
          "internalType": "uint256",
          "name": "amount",
          "type": "uint256"
        }
      ],
      "name": "bid",
      "outputs": [],
      "stateMutability": "payable",
      "type": "function"
    },
    {
      "inputs": [
        {
          "internalType": "address",
          "name": "",
          "type": "address"
        }
      ],
      "name": "bids",
      "outputs": [
        {
          "internalType": "uint256",
          "name": "",
          "type": "uint256"
        }
      ],
      "stateMutability": "view",
      "type": "function"
    },
    {
      "inputs": [],
      "name": "erc20TokenAddress",
      "outputs": [
        {
          "internalType": "contract IERC20",
          "name": "",
          "type": "address"
        }
      ],
      "stateMutability": "view",
      "type": "function"
    },
    {
      "inputs": [],
      "name": "erc721TokenAddress",
      "outputs": [
        {
          "internalType": "contract IERC721",
          "name": "",
          "type": "address"
        }
      ],
      "stateMutability": "view",
      "type": "function"
    },
    {
      "inputs": [],
      "name": "finalize",
      "outputs": [],
      "stateMutability": "payable",
      "type": "function"
    },
    {
      "inputs": [],
      "name": "getAddressOfOwner",
      "outputs": [
        {
          "internalType": "address",
          "name": "",
          "type": "address"
        }
      ],
      "stateMutability": "view",
      "type": "function"
    },
    {
      "inputs": [],
      "name": "getNumBlocksOpen",
      "outputs": [
        {
          "internalType": "uint256",
          "name": "",
          "type": "uint256"
        }
      ],
      "stateMutability": "view",
      "type": "function"
    },
    {
      "inputs": [],
      "name": "getOfferPriceDecrement",
      "outputs": [
        {
          "internalType": "uint256",
          "name": "",
          "type": "uint256"
        }
      ],
      "stateMutability": "view",
      "type": "function"
    },
    {
      "inputs": [],
      "name": "getPrice",
      "outputs": [
        {
          "internalType": "uint256",
          "name": "",
          "type": "uint256"
        }
      ],
      "stateMutability": "view",
      "type": "function"
    },
    {
      "inputs": [],
      "name": "getReservePrice",
      "outputs": [
        {
          "internalType": "uint256",
          "name": "",
          "type": "uint256"
        }
      ],
      "stateMutability": "view",
      "type": "function"
    },
    {
      "inputs": [],
      "name": "getWinnerAddress",
      "outputs": [
        {
          "internalType": "address",
          "name": "",
          "type": "address"
        }
      ],
      "stateMutability": "view",
      "type": "function"
    },
    {
      "inputs": [],
      "name": "highestBid",
      "outputs": [
        {
          "internalType": "uint256",
          "name": "",
          "type": "uint256"
        }
      ],
      "stateMutability": "view",
      "type": "function"
    },
    {
      "inputs": [],
      "name": "highestBidder",
      "outputs": [
        {
          "internalType": "address",
          "name": "",
          "type": "address"
        }
      ],
      "stateMutability": "view",
      "type": "function"
    },
    {
      "inputs": [],
      "name": "nftTokenId",
      "outputs": [
        {
          "internalType": "uint256",
          "name": "",
          "type": "uint256"
        }
      ],
      "stateMutability": "view",
      "type": "function"
    },
    {
      "inputs": [],
      "name": "nop",
      "outputs": [
        {
          "internalType": "bool",
          "name": "",
          "type": "bool"
        }
      ],
      "stateMutability": "nonpayable",
      "type": "function"
    },
    {
      "inputs": [
        {
          "internalType": "uint256",
          "name": "refundAmount",
          "type": "uint256"
        }
      ],
      "name": "refund",
      "outputs": [],
      "stateMutability": "payable",
      "type": "function"
    },
    {
      "inputs": [],
      "name": "sell",
      "outputs": [],
      "stateMutability": "nonpayable",
      "type": "function"
    }
  ],
  "bytecode": "0x60806040523480156200001157600080fd5b5060405162001c1a38038062001c1a8339818101604052810190620000379190620001cd565b85600b60006101000a81548173ffffffffffffffffffffffffffffffffffffffff021916908373ffffffffffffffffffffffffffffffffffffffff16021790555084600c60006101000a81548173ffffffffffffffffffffffffffffffffffffffff021916908373ffffffffffffffffffffffffffffffffffffffff16021790555083600d81905550826002819055508160038190555080600481905550336000806101000a81548173ffffffffffffffffffffffffffffffffffffffff021916908373ffffffffffffffffffffffffffffffffffffffff1602179055504360058190555050505050505062000269565b600080fd5b600073ffffffffffffffffffffffffffffffffffffffff82169050919050565b60006200015a826200012d565b9050919050565b6200016c816200014d565b81146200017857600080fd5b50565b6000815190506200018c8162000161565b92915050565b6000819050919050565b620001a78162000192565b8114620001b357600080fd5b50565b600081519050620001c7816200019c565b92915050565b60008060008060008060c08789031215620001ed57620001ec62000128565b5b6000620001fd89828a016200017b565b96505060206200021089828a016200017b565b95505060406200022389828a01620001b6565b94505060606200023689828a01620001b6565b93505060806200024989828a01620001b6565b92505060a06200025c89828a01620001b6565b9150509295509295509295565b6119a180620002796000396000f3fe6080604052600436106100fe5760003560e01c80637e83057411610095578063c54bfb6811610064578063c54bfb68146102c6578063d57bde79146102f1578063df241cb91461031c578063f072232214610347578063f835cd3c14610372576100fe565b80637e8305741461021a57806385d260fa1461024557806391f901571461027057806398d5fdca1461029b576100fe565b8063454a2ab3116100d1578063454a2ab3146101a057806345710074146101bc5780634bb278f3146101d357806362ea82db146101dd576100fe565b806310a37c2614610103578063278ecde11461012e5780632c588a761461014a5780632e9c58bb14610175575b600080fd5b34801561010f57600080fd5b5061011861039d565b60405161012591906112c5565b60405180910390f35b6101486004803603810190610143919061131b565b6103c7565b005b34801561015657600080fd5b5061015f610480565b60405161016c9190611357565b60405180910390f35b34801561018157600080fd5b5061018a61048a565b604051610197919061138d565b60405180910390f35b6101ba60048036038101906101b5919061131b565b610493565b005b3480156101c857600080fd5b506101d16109ab565b005b6101db610bec565b005b3480156101e957600080fd5b5061020460048036038101906101ff91906113d4565b611012565b6040516102119190611357565b60405180910390f35b34801561022657600080fd5b5061022f61102a565b60405161023c9190611357565b60405180910390f35b34801561025157600080fd5b5061025a611030565b60405161026791906112c5565b60405180910390f35b34801561027c57600080fd5b50610285611059565b60405161029291906112c5565b60405180910390f35b3480156102a757600080fd5b506102b061107f565b6040516102bd9190611357565b60405180910390f35b3480156102d257600080fd5b506102db6110c0565b6040516102e89190611357565b60405180910390f35b3480156102fd57600080fd5b506103066110ca565b6040516103139190611357565b60405180910390f35b34801561032857600080fd5b506103316110d0565b60405161033e9190611460565b60405180910390f35b34801561035357600080fd5b5061035c6110f6565b6040516103699190611357565b60405180910390f35b34801561037e57600080fd5b50610387611100565b604051610394919061149c565b60405180910390f35b6000600a60009054906101000a900473ffffffffffffffffffffffffffffffffffffffff16905090565b600760009054906101000a900460ff1680156103f05750600760019054906101000a900460ff16155b6103f957600080fd5b6001600760016101000a81548160ff021916908315150217905550600160009054906101000a900473ffffffffffffffffffffffffffffffffffffffff1673ffffffffffffffffffffffffffffffffffffffff166108fc829081150290604051600060405180830381858888f1935050505015801561047c573d6000803e3d6000fd5b5050565b6000600354905090565b60006001905090565b6104ab600760009054906101000a900460ff16611126565b6104ea816040518060400160405280600a81526020017f54686520616d6f756e74000000000000000000000000000000000000000000008152506111bf565b610529436040518060400160405280600f81526020017f54686520626c6f636b6e756d62657200000000000000000000000000000000008152506111bf565b61057760035460055461053c91906114e6565b6040518060400160405280601281526020017f74686520626c6f636b20636f6d7061726f7200000000000000000000000000008152506111bf565b600760009054906101000a900460ff16156105c7576040517f08c379a00000000000000000000000000000000000000000000000000000000081526004016105be90611599565b60405180910390fd5b600854811161060b576040517f08c379a00000000000000000000000000000000000000000000000000000000081526004016106029061162b565b60405180910390fd5b60004360035460055461061e91906114e6565b610628919061164b565b600454610635919061167f565b60025461064291906114e6565b9050808211156109a757600b60009054906101000a900473ffffffffffffffffffffffffffffffffffffffff1673ffffffffffffffffffffffffffffffffffffffff1663095ea7b330846040518363ffffffff1660e01b81526004016106a99291906116d9565b602060405180830381600087803b1580156106c357600080fd5b505af11580156106d7573d6000803e3d6000fd5b505050506040513d601f19601f820116820180604052508101906106fb919061172e565b50600b60009054906101000a900473ffffffffffffffffffffffffffffffffffffffff1673ffffffffffffffffffffffffffffffffffffffff166323b872dd3330856040518463ffffffff1660e01b815260040161075b9392919061175b565b602060405180830381600087803b15801561077557600080fd5b505af1158015610789573d6000803e3d6000fd5b505050506040513d601f19601f820116820180604052508101906107ad919061172e565b5060006008541461088d57600b60009054906101000a900473ffffffffffffffffffffffffffffffffffffffff1673ffffffffffffffffffffffffffffffffffffffff1663a9059cbb600a60009054906101000a900473ffffffffffffffffffffffffffffffffffffffff166008546040518363ffffffff1660e01b81526004016108399291906116d9565b602060405180830381600087803b15801561085357600080fd5b505af1158015610867573d6000803e3d6000fd5b505050506040513d601f19601f8201168201806040525081019061088b919061172e565b505b600073ffffffffffffffffffffffffffffffffffffffff16600a60009054906101000a900473ffffffffffffffffffffffffffffffffffffffff1673ffffffffffffffffffffffffffffffffffffffff161461095e5760085460096000600a60009054906101000a900473ffffffffffffffffffffffffffffffffffffffff1673ffffffffffffffffffffffffffffffffffffffff1673ffffffffffffffffffffffffffffffffffffffff168152602001908152602001600020600082825461095691906114e6565b925050819055505b8160088190555033600a60006101000a81548173ffffffffffffffffffffffffffffffffffffffff021916908373ffffffffffffffffffffffffffffffffffffffff1602179055505b5050565b60006109b561107f565b90506109f6816040518060400160405280600981526020017f54686520707269636500000000000000000000000000000000000000000000008152506111bf565b600254811015610a1c576001600760006101000a81548160ff0219169083151502179055505b600760009054906101000a900460ff1615610a6c576040517f08c379a0000000000000000000000000000000000000000000000000000000008152600401610a63906117de565b60405180910390fd5b600073ffffffffffffffffffffffffffffffffffffffff16600a60009054906101000a900473ffffffffffffffffffffffffffffffffffffffff1673ffffffffffffffffffffffffffffffffffffffff1614610bb357600c60009054906101000a900473ffffffffffffffffffffffffffffffffffffffff1673ffffffffffffffffffffffffffffffffffffffff166323b872dd60008054906101000a900473ffffffffffffffffffffffffffffffffffffffff16600a60009054906101000a900473ffffffffffffffffffffffffffffffffffffffff16600d546040518463ffffffff1660e01b8152600401610b659392919061181f565b600060405180830381600087803b158015610b7f57600080fd5b505af1158015610b93573d6000803e3d6000fd5b505050506001600760006101000a81548160ff0219169083151502179055505b60008054906101000a900473ffffffffffffffffffffffffffffffffffffffff1673ffffffffffffffffffffffffffffffffffffffff16ff5b600760009054906101000a900460ff168015610c155750600760019054906101000a900460ff16155b610c1e57600080fd5b600160009054906101000a900473ffffffffffffffffffffffffffffffffffffffff1673ffffffffffffffffffffffffffffffffffffffff163373ffffffffffffffffffffffffffffffffffffffff1614610c7857600080fd5b6001600760016101000a81548160ff02191690831515021790555060008054906101000a900473ffffffffffffffffffffffffffffffffffffffff1673ffffffffffffffffffffffffffffffffffffffff166108fc6006549081150290604051600060405180830381858888f19350505050158015610cfb573d6000803e3d6000fd5b50600b60009054906101000a900473ffffffffffffffffffffffffffffffffffffffff1673ffffffffffffffffffffffffffffffffffffffff166323b872dd60008054906101000a900473ffffffffffffffffffffffffffffffffffffffff1633670de0b6b3a7640000600654610d72919061167f565b6040518463ffffffff1660e01b8152600401610d909392919061181f565b602060405180830381600087803b158015610daa57600080fd5b505af1158015610dbe573d6000803e3d6000fd5b505050506040513d601f19601f82011682018060405250810190610de2919061172e565b50600b60009054906101000a900473ffffffffffffffffffffffffffffffffffffffff1673ffffffffffffffffffffffffffffffffffffffff1663a9059cbb33600b60009054906101000a900473ffffffffffffffffffffffffffffffffffffffff1673ffffffffffffffffffffffffffffffffffffffff166370a0823160008054906101000a900473ffffffffffffffffffffffffffffffffffffffff166040518263ffffffff1660e01b8152600401610e9d9190611856565b60206040518083038186803b158015610eb557600080fd5b505afa158015610ec9573d6000803e3d6000fd5b505050506040513d601f19601f82011682018060405250810190610eed9190611886565b6040518363ffffffff1660e01b8152600401610f0a9291906116d9565b602060405180830381600087803b158015610f2457600080fd5b505af1158015610f38573d6000803e3d6000fd5b505050506040513d601f19601f82011682018060405250810190610f5c919061172e565b50600c60009054906101000a900473ffffffffffffffffffffffffffffffffffffffff1673ffffffffffffffffffffffffffffffffffffffff166323b872dd60008054906101000a900473ffffffffffffffffffffffffffffffffffffffff1633600d546040518463ffffffff1660e01b8152600401610fde9392919061181f565b600060405180830381600087803b158015610ff857600080fd5b505af115801561100c573d6000803e3d6000fd5b50505050565b60096020528060005260406000206000915090505481565b600d5481565b60008060009054906101000a900473ffffffffffffffffffffffffffffffffffffffff16905090565b600a60009054906101000a900473ffffffffffffffffffffffffffffffffffffffff1681565b6000804360035460055461109391906114e6565b61109d919061164b565b6004546110aa919061167f565b6002546110b791906114e6565b90508091505090565b6000600454905090565b60085481565b600c60009054906101000a900473ffffffffffffffffffffffffffffffffffffffff1681565b6000600254905090565b600b60009054906101000a900473ffffffffffffffffffffffffffffffffffffffff1681565b6111bc8160405160240161113a919061138d565b6040516020818303038152906040527f32458eed000000000000000000000000000000000000000000000000000000007bffffffffffffffffffffffffffffffffffffffffffffffffffffffff19166020820180517bffffffffffffffffffffffffffffffffffffffffffffffffffffffff838183161783525050505061125b565b50565b61125782826040516024016111d592919061193b565b6040516020818303038152906040527f0fa3f345000000000000000000000000000000000000000000000000000000007bffffffffffffffffffffffffffffffffffffffffffffffffffffffff19166020820180517bffffffffffffffffffffffffffffffffffffffffffffffffffffffff838183161783525050505061125b565b5050565b60008151905060006a636f6e736f6c652e6c6f679050602083016000808483855afa5050505050565b600073ffffffffffffffffffffffffffffffffffffffff82169050919050565b60006112af82611284565b9050919050565b6112bf816112a4565b82525050565b60006020820190506112da60008301846112b6565b92915050565b600080fd5b6000819050919050565b6112f8816112e5565b811461130357600080fd5b50565b600081359050611315816112ef565b92915050565b600060208284031215611331576113306112e0565b5b600061133f84828501611306565b91505092915050565b611351816112e5565b82525050565b600060208201905061136c6000830184611348565b92915050565b60008115159050919050565b61138781611372565b82525050565b60006020820190506113a2600083018461137e565b92915050565b6113b1816112a4565b81146113bc57600080fd5b50565b6000813590506113ce816113a8565b92915050565b6000602082840312156113ea576113e96112e0565b5b60006113f8848285016113bf565b91505092915050565b6000819050919050565b600061142661142161141c84611284565b611401565b611284565b9050919050565b60006114388261140b565b9050919050565b600061144a8261142d565b9050919050565b61145a8161143f565b82525050565b60006020820190506114756000830184611451565b92915050565b60006114868261142d565b9050919050565b6114968161147b565b82525050565b60006020820190506114b1600083018461148d565b92915050565b7f4e487b7100000000000000000000000000000000000000000000000000000000600052601160045260246000fd5b60006114f1826112e5565b91506114fc836112e5565b9250827fffffffffffffffffffffffffffffffffffffffffffffffffffffffffffffffff03821115611531576115306114b7565b5b828201905092915050565b600082825260208201905092915050565b7f5468652061756374696f6e2068617320656e6465640000000000000000000000600082015250565b600061158360158361153c565b915061158e8261154d565b602082019050919050565b600060208201905081810360008301526115b281611576565b9050919050565b7f5468652062696420616d6f756e74206d7573742062652067726561746572207460008201527f68616e2074686520696e697469616c2070726963650000000000000000000000602082015250565b600061161560358361153c565b9150611620826115b9565b604082019050919050565b6000602082019050818103600083015261164481611608565b9050919050565b6000611656826112e5565b9150611661836112e5565b925082821015611674576116736114b7565b5b828203905092915050565b600061168a826112e5565b9150611695836112e5565b9250817fffffffffffffffffffffffffffffffffffffffffffffffffffffffffffffffff04831182151516156116ce576116cd6114b7565b5b828202905092915050565b60006040820190506116ee60008301856112b6565b6116fb6020830184611348565b9392505050565b61170b81611372565b811461171657600080fd5b50565b60008151905061172881611702565b92915050565b600060208284031215611744576117436112e0565b5b600061175284828501611719565b91505092915050565b600060608201905061177060008301866112b6565b61177d60208301856112b6565b61178a6040830184611348565b949350505050565b7f41756374696f6e20616c726561647920656e6465642100000000000000000000600082015250565b60006117c860168361153c565b91506117d382611792565b602082019050919050565b600060208201905081810360008301526117f7816117bb565b9050919050565b60006118098261142d565b9050919050565b611819816117fe565b82525050565b60006060820190506118346000830186611810565b61184160208301856112b6565b61184e6040830184611348565b949350505050565b600060208201905061186b6000830184611810565b92915050565b600081519050611880816112ef565b92915050565b60006020828403121561189c5761189b6112e0565b5b60006118aa84828501611871565b91505092915050565b600081519050919050565b60005b838110156118dc5780820151818401526020810190506118c1565b838111156118eb576000848401525b50505050565b6000601f19601f8301169050919050565b600061190d826118b3565b611917818561153c565b93506119278185602086016118be565b611930816118f1565b840191505092915050565b60006040820190506119506000830185611348565b81810360208301526119628184611902565b9050939250505056fea2646970667358221220e03ad2fd44bf6171bd4e4c3c017a0c730bba86bca913ccda8c5021eb083f5be364736f6c63430008090033",
  "linkReferences": {},
  "deployedLinkReferences": {}
}